:020000040800F2
:10000000C05E00205502000895500008514A0008C3
:1000100075500008510600085D5D000800000000F2
:1000200000000000000000000000000081510008F6
:10003000651100080000000011510008C1510008BE
:100040006F0200086F0200086F0200086F020008CC
:100050006F0200086F0200086F0200086F020008BC
:100060006F0200086F0200086F0200086F020008AC
:100070006F0200086F0200086F0200086F0200089C
:10008000290E0008390E00086F0200086F020008F0
:1000900055060008650600086F0200086F02000898
:1000A0006F020008B55200086F0200086F020008D6
:1000B000C5520008D55200086F0200086F02000800
:1000C0006F0200086F0200086F0200086F0200084C
:1000D0006F0200083D5D00084D5D00086F020008DA
:1000E0006F0200086F0200086F0200086F0200082C
:1000F0006F0200086F0200086F0200086F0200081C
:100100006F0200086F0200086F0200086F0200080B
:100110006F0200086F0200086F0200086F020008FB
:100120006F0200086F020008490E00086F02000805
:100130006F02000800000000000000006F020008CD
:1001400075060008850600086F0200086F020008A7
:100150006F0200086F020008590E00086F020008C5
:100160006F0200086F0200086F0200086F020008AB
:100170006F0200086F02000800000000000000008D
:100180006F0200086F02000800F002F800F052F859
:1001900014A696E8000CB244B344DA4501D100F04D
:1001A00049F8BAE80F000FA696E83000A5EB040561
:1001B00004EB0607AAEB0704A7F101074FEA1515A0
:1001C0004FEA3414A4F10104AC4201D300F032F838
:1001D00013F0010F18BFFB1A43F0010300F001F800
:1001E000DBE718478C990000AC990000103A24BF57
:1001F00078C878C1FAD8520724BF30C830C144BF8C
:1002000004680C6070470000704700000023002461
:1002100000250026103A28BF78C1FBD8520728BF16
:1002200030C148BF0B6070471FB509F036FC1FBDD9
:1002300010B510BD00F054F91146FFF7F5FF06F0B8
:10024000EBFB00F072F903B4FFF7F2FF03BC00F020
:1002500075F900000948804709480047FEE7FEE7B6
:10026000FEE7FEE7FEE7FEE7FEE7FEE7FEE7FEE766
:1002700004480549054A064B70470000A152000892
:1002800089010008C0520020C05E0020C05A002032
:10029000C05A002053EA020C00F069802DE9F04BAF
:1002A0004FF00006002B1FBFB3FA83F503FA05F4E5
:1002B00024FA05F65E4012BF1643B2FA82F502FA3E
:1002C00005F4C5F120051EBF22FA05FC44EA0C0422
:1002D000203556EA044C4FEA144418BF641C4FF012
:1002E00000084FF00009904271EB030C39D300294C
:1002F00019BFB1FA81F701FA07F6B0FA80F700FAF0
:1003000007F6C7F120071EBF20FA07FC46EA0C06D5
:100310002037B6FBF4FCA7EB0507103F07F01F0BD7
:10032000CBF120062CFA06F60CFA0BFB44BFB346C1
:100330000026202FA4BF5E464FF0000B5BEA060CA0
:1003400008BF4FF0010B19EB0B0948EB0608ABFB9C
:10035000027C06FB02CC0BFB03CCC01B71EB0C0137
:10036000C1E70B46024641464846BDE8F08B13B54F
:10037000084318BF4FF0FF300146AFF30080BDE8DF
:100380001C407047032A40F2308010F0030C00F04C
:10039000158011F8013BBCF1020F624498BF11F8BF
:1003A00001CB00F8013B38BF11F8013BA2F1040278
:1003B00098BF00F801CB38BF00F8013B11F00303F0
:1003C00000F05780083AC0F0088051F8043B083A22
:1003D00051F804CBA0E80810F5E7121D5CBF51F8F6
:1003E000043B40F8043BAFF30080D20724BF11F870
:1003F000013B11F801CB48BF11F8012B24BF00F8D5
:10040000013B00F801CB48BF00F8012B704702F018
:10041000FF0343EA032242EA024200F002B84FF02F
:10042000000200B5134694469646203922BFA0E844
:100430000C50A0E80C50B1F12001BFF4F7AF090750
:1004400028BFA0E80C5048BF0CC05DF804EB890041
:1004500028BF40F8042B08BF704748BF20F8022B84
:1004600011F0804F18BF00F8012B7047704770479C
:10047000704710B5203AC0F00B80B1E81850A0E8E2
:100480001850B1E81850A0E81850203ABFF4F5AF62
:100490005FEA027C24BFB1E81850A0E8185044BFBE
:1004A00018C918C0BDE810405FEA827C24BF51F82B
:1004B000043B40F8043B08BF7047D20728BF31F81F
:1004C000023B48BF11F8012B28BF20F8023B48BF70
:1004D00000F8012B7047000000487047180000200A
:1004E0007546FFF7F9FFAE4605006946534620F012
:1004F0000700854618B020B5FFF7BAFEBDE82040DA
:100500004FF000064FF000074FF000084FF0000BCF
:10051000AC46ACE8C009ACE8C009ACE8C009ACE83E
:10052000C00921F007018D46704710B50446AFF3AE
:1005300000802046BDE81040FFF785BE0149182025
:10054000ABBEFEE7260002007047000080B586B013
:100550000590FFE740F27801C2F2000108788DF8BB
:100560001300002008708DF81200FFE79DF81200BC
:100570009DF8131088421DDAFFE70020C4F2020044
:1005800002904FF480710191012202F049FB282072
:10059000039006F06DFA01990298002202F040FBE8
:1005A000039806F065FAFFE79DF8120001308DF818
:1005B0001200DBE7012006F05BFACBE781B08DF893
:1005C00003009DF8030040F27801C2F200010870B8
:1005D00001B0704780B586B00020C4F202000290DE
:1005E0004FF4807103910122019202F019FBC8209F
:1005F000009002F017F9029803990022049202F089
:100600000FFB009802F00EF9019A0298039902F08C
:1006100007FB3220059002F005F902980399049A2D
:1006200002F0FEFA059802F0FDF8019A029803998B
:1006300002F0F6FA059802F0F5F802980399049A88
:1006400002F0EEFA059802F0EDF806B080BD000069
:10065000FFE7FEE780B540F21C60C2F2000001F047
:10066000FFF880BD80B540F21C60C2F2000001F0CE
:10067000F7F880BD80B540F24460C2F2000001F09E
:10068000EFF880BD80B540F24460C2F2000001F096
:10069000E7F880BD80B58CB00A90002003900290EE
:1006A00001900A9800F0F2F820B1FFE700208DF8E1
:1006B0002F005CE00A98017801EB410100EBC100DA
:1006C00000690690002007900A98017801EB41012B
:1006D00000EBC100007B08900898092803D3FFE7CE
:1006E00008200890FFE700208DF82400069848B9FC
:1006F000FFE70A98017801EB410100EBC100806837
:10070000049008E00A98017801EB410100EBC10078
:1007100080680590FFE70A98017801EB410100EB42
:10072000C10000F11401089A02A80090FFF72AFE08
:10073000009A0A98406804A901AB00F007FE20B1B6
:10074000FFE700208DF82F0011E00A9908780130AA
:1007500045F25652C1F25552A0FB023202EB420260
:10076000A0EB8200087001208DF82F00FFE79DF8B4
:100770002F000CB080BD000070B58AB0119D109C98
:10078000DDF83CE0DDF838C0129E09950894CDF8FC
:100790001CE0CDF818C005930492039102900298D2
:1007A00000F080F808B1FFE746E00798092803D376
:1007B000FFE70820019003E09DF81C000190FFE78F
:1007C000019802994A7802EB420201EBC2010873D8
:1007D000059802994A7802EB420201EBC2010861D6
:1007E000059818B9FFE70398009002E0049800907C
:1007F000FFE7009802994A7802EB420201EBC2013E
:1008000088600298417801EB410100EBC10202F1DE
:1008100014001299127BFFF7B5FD02994878013058
:1008200045F25652C1F25552A0FB023202EB42028F
:10083000A0EB82004870FFE70AB070BD40F6D060C0
:10084000C2F200000078C00708B1FFE71DE040F2E7
:100850008002C2F2000200205070107040F2A81115
:10086000C2F200014870087040F21C60C2F2000041
:10087000506040F24460C2F20000486040F6D0612F
:10088000C2F2000101200870FFE7704781B00090BC
:10089000009908784978401AB0FA80F0400901B010
:1008A0007047000081B000900098017840780130D6
:1008B00045F25652C1F25552A0FB023202EB4202FF
:1008C000A0EB8200401AB0FA80F0400901B07047F6
:1008D00080B582B08DED010A019840F22C41C2F240
:1008E0000001C1F84801FFE740F22C40C2F20000CD
:1008F00090ED520A90ED581A30EE410AB5EE400ADA
:10090000F1EE10FA0DDDFFE740F22C40C2F20000DC
:1009100090ED520A90ED581A30EE410A8DED000A22
:100920000CE040F22C40C2F2000090ED521A90ED23
:10093000580A30EE410A8DED000AFFE79DED000AEE
:10094000B6EE001AB4EE410AF1EE10FA04DDFFE74C
:10095000322006F08DF8C7E702B080BD80B584B0C4
:100960008DED030A9DED030A40F20000C2F2000083
:1009700090ED001A30EE410A8DED020A9DED020A5B
:100980009FED351A80EE010A9FED341A20EE010A20
:100990008DED010A40F22C41C2F2000191ED080AEE
:1009A0009DED011A30EE010A40F22440C2F200002F
:1009B00080ED000A0068886091ED300A9DED011A13
:1009C00030EE010A40F22840C2F2000080ED000A39
:1009D0000068C1F8A800FFE740F22C40C2F2000016
:1009E00090ED020A90ED081A30EE410AB5EE400A89
:1009F000F1EE10FA0DDDFFE740F22C40C2F20000EC
:100A000090ED020A90ED081A30EE410A8DED000AD1
:100A10000CE040F22C40C2F2000090ED021A90ED82
:100A2000080A30EE410A8DED000AFFE79DED000A4D
:100A3000B1EE041AB4EE410AF1EE10FA04DDFFE75C
:100A4000012006F015F8C7E7039840F20001C2F252
:100A50000001086004B080BD7B141D430000B44356
:100A60007047000080B582B040F20C60C2F2000016
:100A70000078C00708B9FFE739E040F20C60C2F225
:100A80000000C07808B9FFE731E040F20C60C2F224
:100A90000000C17801710021C17000790138014660
:100AA0000191082822D80199DFE801F005080B0E12
:100AB0001114171A1D0000F06FF818E000F04CF93F
:100AC00015E000F037F912E000F0DCF80FE000F07C
:100AD00011F80CE000F0C4F809E000F06FF906E04E
:100AE000FFF7BEFF03E000F0E9F800E0FFE702B027
:100AF00080BD000080B540F2EC70C2F2000090EDC5
:100B0000010AFFF72BFF642005F0B2FF012000214E
:100B100007F04CF980BD000040F20C61C2F2000108
:100B2000012008700020C87008714870887040F279
:100B3000EC72C2F2000248F20001C4F28931516045
:100B40000021C4F28C3191600021C4F29131D16056
:100B50000021C4F2CD31116040F20002C2F2000265
:100B600048F20001C4F29231116040F22441C2F215
:100B70000001086040F22841C2F20001086040F222
:100B80001461C2F200010020C4F234300860002079
:100B9000C4F287304860704780B582B040F20C6084
:100BA000C2F200004078C00748BBFFE740F20C618A
:100BB000C2F20001002008700190FFE701980228AE
:100BC00015D8FFE7019800EB8000420140F22C416C
:100BD000C2F2000100208854019A02EB820201EB6C
:100BE00042114870FFE7019801300190E6E70320C9
:100BF000002107F0DBF80220FFF7E0FC2EE040F2D6
:100C00000C60C2F200004078C00730B3FFE700205C
:100C10000090FFE70098022816D8FFE7009800EB45
:100C20008000420140F22C40C2F2000001218154B8
:100C3000009901EB810100EB411103204870FFE7AF
:100C4000009801300090E5E740F20C61C2F200012B
:100C500001200870FFF7B2FCFFE7FFE702B080BD9C
:100C600080B540F2EC70C2F2000090ED020AFFF78E
:100C700075FE642005F0FCFE01200F2107F096F8B8
:100C800080BD000080B540F2EC70C2F2000090ED33
:100C9000000AFFF763FE642005F0EAFE40F21460EC
:100CA000C2F2000090ED000AFFF712FE322005F0BC
:100CB000DFFE01200F2107F079F880BD80B586B0F6
:100CC00000200490FFE70498012815D8FFE7049856
:100CD00000EB8000420140F22C41C2F200010020F2
:100CE0008854049A02EB820201EB42114870FFE73C
:100CF000049801300490E6E70020C4F2020002905C
:100D00004FF4807101910122039201F089FF642068
:100D100005F0AEFE01990298002201F081FF142037
:100D200005F0A6FE03980590059880F3138805F05A
:100D30005FFE000080B50120002107F037F840F287
:100D40001460C2F2000090ED000AFFF7C1FD3220EE
:100D500005F08EFE80BD000080B582B040F20C60D0
:100D6000C2F20000807801460191032818D8019949
:100D7000DFE801F002070C110120002107F016F84E
:100D80000FE001200F2107F011F80AE001210846C9
:100D900007F00CF805E00120022107F007F800E059
:100DA000FFE702B080BD000080B582B00190FFE790
:100DB000FFF758FE012005F05BFEF9E780B582B031
:100DC000012001900F2106F0F1FF40F2EC70C2F219
:100DD000000090ED000AFFF7C1FD642005F048FE19
:100DE0000198002106F0E2FF9FED060AFFF770FD73
:100DF000322005F03DFE9FED040AFFF7AFFD02B083
:100E000080BD00BF000000000080924381B08DEDE6
:100E1000000A9DED000A9FED031A80EE010A01B061
:100E2000704700BF0000B44380B540F22C70C2F29E
:100E3000000001F04DFA80BD80B540F28C70C2F226
:100E4000000001F045FA80BD80B540F26C60C2F24E
:100E5000000001F03DFA80BD80B540F2CC60C2F2E6
:100E6000000001F035FA80BD82B001900198007851
:100E700010384AF6AB21CAF6AA21A0FB01100009DE
:100E80000090009949F61430C0F60000405C0199CA
:100E9000C8650098042807D3FFE701990868042271
:100EA00062F30900886506E00199086840F2FF32A4
:100EB00090438865FFE70198806D02B0704700009D
:100EC00086B0059000208DF813000598806A039085
:100ED0000598806910BBFFE70398029003281BD890
:100EE0000299DFE801F0020D0218059890F82F0032
:100EF000C00720B1FFE701208DF81300FFE70CE0E9
:100F00000598C06AB0F1C07F04D1FFE701208DF8D9
:100F10001300FFE701E000E0FFE745E00598806986
:100F2000B0F5005F25D1FFE70398019003281ED894
:100F30000199DFE801F00206021101208DF813008B
:100F400016E0059890F82F00C00720B1FFE70120B8
:100F50008DF81300FFE70BE00598C06AB0F1C07F81
:100F600004D1FFE701208DF81300FFE700E0FFE761
:100F700019E003980090032804D3FFE700980328A2
:100F800004D00EE001208DF813000BE0059890F8D6
:100F90002F00C00720B1FFE701208DF81300FFE705
:100FA00000E0FFE7FFE7FFE79DF8130006B070479A
:100FB00084B003900291019200930398016808683D
:100FC00020F480200860009803990968486003981D
:100FD0008068402809D1FFE7019803990968886073
:100FE000029803990968C86008E0029803990968A3
:100FF0008860019803990968C860FFE704B07047EA
:1010000080B582B08DF8060040F2E020C2F2000008
:1010100090F80601012872D1FFE79DF8061040F212
:10102000E020C2F2000080F8011190F801015A2876
:1010300057D1FFE700208DF805000090FFE70098EA
:1010400040F2E021C2F2000191F802110139884218
:1010500010DAFFE7009940F2E020C2F20000415CA4
:101060009DF8050008448DF80500FFE70098013061
:101070000090E4E740F2E021C2F20001002081F894
:10108000060191F80201084410F8010C9DF80510C2
:10109000884225D1FFE740F2E020C2F2000090F83C
:1010A0000201232814D1FFE740F2E830C2F2000029
:1010B00000F05AF801280AD0FFE740F2E021C2F21E
:1010C0000001002081F802018DF8070046E0FFE7EB
:1010D00040F2E021C2F20001002081F80201FFE7A6
:1010E0000CE09DF8060040F2E021C2F2000191F808
:1010F0000221531C81F802318854FFE715E09DF866
:10110000061040F2E020C2F2000080F8001190F8D2
:101110000001A52808D1FFE740F2E021C2F200015A
:10112000012081F80601FFE7FFE740F2E020C2F26C
:10113000000090F8020180280CDBFFE740F2E0217C
:10114000C2F20001002081F8060181F802018DF849
:10115000070003E001208DF80700FFE79DF8070076
:1011600002B080BD7047000086B0049000208DF86A
:101170000F008DF80E000290FFE7029811281CDC8A
:10118000FFE70298C11700EB5170C11040F2E02058
:10119000C2F20000405C9DF80E104A1C8DF80E2033
:1011A00001F00701C84000F001000499029A885438
:1011B000FFE7029801300290DFE703208DF80F006F
:1011C00000208DF80700FFE79DF80700022816DCD5
:1011D000FFE79DF80F10481C8DF80F0040F2E0204B
:1011E000C2F20000405C04999DF807201144887405
:1011F000FFE79DF8070001308DF80700E4E70020C5
:101200000090FFE70098062816DCFFE70498009995
:1012100000EB81019DF80F2040F2E020C2F20000B7
:10122000805888619DF80F0004308DF80F00FFE7AB
:10123000009801300090E5E79DF80F00222804D0C7
:10124000FFE700208DF8170003E001208DF817005C
:10125000FFE79DF8170006B07047000072B6FFE781
:10126000FEE7000084B002900191029890F82000FF
:101270008DF803009DF80300012805D0FFE79DF8D5
:10128000030002282AD1FFE79DF80400C00738B107
:10129000FFE702980168886840F080008860FFE7F7
:1012A0009DF804008007002807D5FFE70298016831
:1012B000886840F400408860FFE79DF8040040071C
:1012C000002807D5FFE702980168886840F400000D
:1012D0008860FFE700208DF80F0008E00299486A57
:1012E00040F48020486201208DF80F00FFE79DF850
:1012F0000F0004B07047000084B002900191029882
:1013000090F820008DF803009DF80300012805D017
:10131000FFE79DF8030002280AD1FFE7019A02982F
:10132000016848691043486100208DF80F0008E00B
:101330000299486A40F48020486201208DF80F002D
:10134000FFE79DF80F0004B07047000088B00690DA
:10135000059104920393069890F820008DF80700F9
:1013600006980068806800900598806808B9FFE7D3
:1013700000E0FFE79DF80700012806D0FFE79DF891
:101380000700022840F08080FFE79DF80300400737
:1013900000280CD4FFE79DF803000007002806D4BE
:1013A000FFE79DF80300C006002864D5FFE700981A
:1013B000C0F30160029002990120884003990860FF
:1013C0000598806868B9FFE705980168C06840EA39
:1013D000415006990968029A01EB0211C1F8800197
:1013E0000EE005994A688868C96840EAC200084367
:1013F00006990968029A01EB0211C1F88001FFE722
:101400000598006906990968029A01EB0211C1F872
:1014100084010598007D01280CD1FFE7069800683B
:10142000029900EB0111D1F8840140F48070C1F8F9
:101430008401FFE70498406806990968029A01EB65
:101440000211C1F88C010498006806990968029A93
:1014500001EB0211C1F8880106980068029900EBBF
:101460000111D1F8800140F00100C1F88001002095
:101470008DF81F0011E00699486A40F40010486298
:1014800001208DF81F0008E00699486A40F480208A
:10149000486201208DF81F00FFE79DF81F0008B08B
:1014A0007047000086B004900391049890F82000E3
:1014B0008DF803009DF80300012806D0FFE79DF892
:1014C0000300022840F0B080FFE746F20040C4F27B
:1014D000000001900199D1F8000240F00100C1F82C
:1014E00000020199D1F8000220F47C50C1F80002FA
:1014F0000398426A0199D1F8000240EA0220C1F83B
:1015000000020398406900F01F010120884002900A
:10151000029A0199D1F81C029043C1F81C02039869
:10152000C069F0B9FFE7029A0199D1F80C02904323
:10153000C1F80C02039A9088D168526940EA0140D0
:10154000019901EBC201C1F84002039A1088916829
:10155000526940EA0140019901EBC201C1F844021D
:10156000FFE70398C06901281ED1FFE7029A01999D
:10157000D1F80C021043C1F80C02039A908811684C
:10158000526940EA0140019901EBC201C1F84002F1
:10159000039A90899168526940EA0140019901EBF0
:1015A000C201C1F84402FFE70398806940B9FFE730
:1015B000029A0199D1F804029043C1F8040207E0AD
:1015C000029A0199D1F804021043C1F80402FFE71E
:1015D0000398006940B9FFE7029A0199D1F8140213
:1015E0009043C1F8140207E0029A0199D1F814025D
:1015F0001043C1F81402FFE70398006A012808D1DC
:10160000FFE7029A0199D1F81C021043C1F81C02AD
:10161000FFE70199D1F8000220F00100C1F80002B3
:1016200000208DF8170008E00499486A40F48020F3
:10163000486201208DF81700FFE79DF8170006B0FB
:101640007047000081B0009001B0704786B00490F0
:10165000039102920193049890F820008DF8030002
:101660009DF80300012806D0FFE79DF8030002283B
:1016700040F0E880FFE7039880B9FFE7049800682E
:10168000C068800748B9FFE70499486A40F4001031
:10169000486201208DF81700DDE00FE00498006833
:1016A0000069800748B9FFE70499486A40F40010D0
:1016B000486201208DF81700CDE0FFE7049800682C
:1016C000039900EB0110D0F8B00100F0040002997A
:1016D00088600298806858B9FFE704980068039909
:1016E00000EB0110D0F8B001400D029908600AE04B
:1016F00004980068039900EB0110D0F8B001C0080D
:1017000002994860FFE704980068039900EB011014
:10171000D0F8B00100F002000299C8600498006897
:10172000039900EB0110D0F8B40100F00F00082875
:1017300004D3FFE70299082008610BE004980068D1
:10174000039900EB0110D0F8B40100F00F000299EA
:101750000861FFE704980068039900EB0110D0F8D6
:10176000B40180B2000A0299886104980068039964
:1017700000EB0110D0F8B401000C02994861049804
:101780000068039900EB0110D0F8B80101990870C6
:1017900004980068039900EB0110D0F8B801000A22
:1017A0000199487004980068039900EB0110D0F883
:1017B000B801000C0199887004980068039900EB47
:1017C0000110D0F8B801000E0199C87004980068A3
:1017D000039900EB0110D0F8BC010199087104983D
:1017E0000068039900EB0110D0F8BC01000A0199D0
:1017F000487104980068039900EB0110D0F8BC010F
:10180000000C0199887104980068039900EB01109D
:10181000D0F8BC01000E0199C871039838B9FFE7F0
:1018200004980168C86840F02000C86006E0049889
:101830000168086940F020000861FFE700208DF88A
:10184000170008E00499486A40F4802048620120AB
:101850008DF81700FFE79DF8170006B070470000ED
:1018600080B58AB009900020089009980068406906
:101870000790099800684068069009980068806899
:10188000059009980068C06804900998006800698C
:10189000039009980068806902909DF81C00C007B9
:1018A000002800F09480FFE79DF81400C00758B3AB
:1018B000FFE709980168012088609DF814008007FF
:1018C000002804D5FFE7099800F052FC1BE09DF8C2
:1018D00014004007002805D5FFE7089840F4006091
:1018E00008900FE09DF814000007002805D5FFE7D9
:1018F000089840F48050089003E0099800F034FC08
:10190000FFE7FFE7FFE7FFE79DF81500C00760B3BB
:10191000FFE7099801684FF4807088609DF8150012
:101920008007002804D5FFE7099800F029FC1BE098
:101930009DF815004007002805D5FFE7089840F4FA
:10194000005008900FE09DF815000007002805D50D
:10195000FFE7089840F48040089003E0099800F001
:101960000BFCFFE7FFE7FFE7FFE79DF81600C00766
:1019700060B3FFE7099801684FF4803088609DF8F4
:1019800016008007002804D5FFE7099800F000FC46
:101990001BE09DF816004007002805D5FFE70898D2
:1019A00040F4004008900FE09DF816000007002862
:1019B00005D5FFE7089840F48030089003E00998C7
:1019C00000F0E2FBFFE7FFE7FFE7FFE7FFE79DF837
:1019D0001C000007002810D5FFE79DF81000C00686
:1019E000002809D5FFE7089840F40070089009988E
:1019F00001681020C860FFE7FFE79DF81C00400762
:101A000000280FD5FFE79DF810000007002808D533
:101A1000FFE7099801680820C860099800F0E2FA19
:101A2000FFE7FFE79DF81C00800700280BD5FFE7C4
:101A300009980068C068800720B1FFE7099800F0A6
:101A4000D5FAFFE7FFE79DF81C004006002810D5F7
:101A5000FFE79DF80C00C006002809D5FFE70898AD
:101A600040F4806008900998016810200861FFE741
:101A7000FFE79DF81C00800600280FD5FFE79DF8C2
:101A80000C000007002808D5FFE709980168082026
:101A90000861099800F0D6FAFFE7FFE79DF81C00FF
:101AA000C00600280BD5FFE7099800680069800789
:101AB00020B1FFE7099800F0C9FAFFE7FFE79DF8BA
:101AC0001E00800700280FD5FFE79DF81800C0060C
:101AD000002808D5FFE70998016810204860099898
:101AE00000F0F8FAFFE7FFE79DF81E00C00778B1A5
:101AF000FFE79DF818000007002808D5FFE70998C0
:101B0000016808204860099800F046FBFFE7FFE7FE
:101B10009DF81D000006002840F18D80FFE79DF82C
:101B200018004007002840F18180FFE79DF81D0064
:101B3000C00750B1FFE79DF80800C00728B1FFE7D4
:101B4000089840F001000890FFE79DF81D0080070D
:101B500000280BD5FFE79DF808008007002805D571
:101B6000FFE7089840F002000890FFE79DF81D008D
:101B7000400700280BD5FFE79DF808004007002824
:101B800005D5FFE7089840F004000890FFE79DF8AE
:101B90001D000007002848D5FFE79DF8080010F059
:101BA000700F42D0FFE7029800F0700001460191EB
:101BB000102814D0FFE70198202815D0FFE70198DE
:101BC000302816D0FFE70198402817D0FFE701988A
:101BD000502818D0FFE70198602819D01DE0089818
:101BE00040F00800089019E0089840F010000890B4
:101BF00014E0089840F0200008900FE0089840F0AA
:101C0000400008900AE0089840F08000089005E045
:101C1000089840F48070089000E0FFE70998016898
:101C2000886920F070008861FFE7FFE70998016884
:101C300004204860FFE7089848B1FFE7089A09992F
:101C4000486A104348620998FFF7FCFCFFE70AB0B6
:101C500080BD000080B584B00290029820B9FFE7F3
:101C600001208DF80F00E0E0029890F8200020B9E4
:101C7000FFE7029800F0DEF8FFE7029801680868C5
:101C800040F00100086000F0E3FF0190FFE70298D8
:101C900000684068C007A8B9FFE700F0D9FF0199C4
:101CA000401A0B280DD3FFE70299486A40F4003030
:101CB00048620299052081F8200001208DF80F006C
:101CC000B3E0E4E702980168086820F002000860C9
:101CD00000F0BEFF0190FFE70298006840688007AF
:101CE000002815D5FFE700F0B3FF0199401A0B2833
:101CF0000DD3FFE70299486A40F400304862029928
:101D0000052081F8200001208DF80F008DE0E3E729
:101D10000298007E012807D1FFE702980168086851
:101D200040F08000086006E002980168086820F032
:101D300080000860FFE70298407E012807D1FFE796
:101D400002980168086840F04000086006E00298C8
:101D50000168086820F040000860FFE70298807E74
:101D6000012807D1FFE702980168086840F02000C9
:101D7000086006E002980168086820F0200008600A
:101D8000FFE70298C07E012807D1FFE702980168AB
:101D9000086820F01000086006E0029801680868F2
:101DA00040F010000860FFE70298007F012807D18B
:101DB000FFE702980168086840F00800086006E044
:101DC00002980168086820F008000860FFE70298A0
:101DD000407F012807D1FFE702980168086840F0BA
:101DE0000400086006E002980168086820F004001A
:101DF0000860FFE7029B19685A689868D3F80CC01E
:101E000040EA0C00D3F810C040EA0C005B691843AC
:101E1000013A1043C861029900204862029A0121E8
:101E200082F820108DF80F00FFE79DF80F0004B036
:101E300080BD000080B594B01390002012901190E6
:101E400010900F900E901398006846F20041C4F273
:101E50000001884254D1FFE740F2D420C2F20000D2
:101E60000168013101600068012812D1FFE7FFE736
:101E700000200D9043F64000C4F20200016841F0DA
:101E800000710160006800F000700D900D98FFE790
:101E9000FFE7FFE700200C9043F63000C4F2020099
:101EA000016841F001010160006800F001000C9040
:101EB0000C98FFE74FF4C0500E9002200F900020C6
:101EC0000790109003201190092012900020C4F276
:101ED00002000EA900F0C8FC079A14200590052105
:101EE000069100F089FF059800F07CFF0699079A9B
:101EF0001520089000F080FF089800F073FF6EE056
:101F00001398006846F60001C4F20001884265D1CA
:101F1000FFE7FFE700200B9043F64000C4F2020009
:101F2000016841F080610160006800F080600B9002
:101F30000B98FFE740F2D420C2F2000001680131A3
:101F400001600068012812D1FFE7FFE700200A9036
:101F500043F64000C4F20200016841F000710160E4
:101F6000006800F000700A900A98FFE7FFE7FFE7BB
:101F70000020099043F63000C4F20200016841F0ED
:101F800002010160006800F0020009900998FFE773
:101F900060200E9002200F900020039010900320EC
:101FA00011900920129040F20040C4F202000EA9E4
:101FB00000F05AFC039A402001900521029100F0A4
:101FC0001BFF019800F00EFF0299039A4120049034
:101FD00000F012FF049800F005FFFFE7FFE714B0E0
:101FE00080BD000081B0009001B0704780B58AB01C
:101FF00009900998006846F20041C4F20001884245
:102000000AD1FFE70998002102AA6B46FFF71EFBE1
:1020100008B9FFE7FFE713E00998006846F60001FA
:10202000C4F2000188420AD1FFE70998002102AA00
:102030006B46FFF70BFB08B9FFE7FFE7FFE7FFE79A
:102040000AB080BD81B0009001B0704770B590B00B
:102050000F900F98006846F20041C4F200018842D8
:102060000AD1FFE70F98012108AA06ABFFF7EEFAA5
:1020700008B9FFE7FFE72AE00F98006846F600017D
:10208000C4F20001884221D1FFE70F98012108AA7C
:1020900006ABFFF7DBFAC0B9FFE7089809990A9A7F
:1020A0000B9BDDF830C00D9C0E9DEE460126CEF850
:1020B000106006AECEF80C60CEF80850CEF80440A2
:1020C000CEF800C004F070F8FFE7FFE7FFE710B0BC
:1020D00070BD000081B0009001B0704780B584B041
:1020E0000290029890F8200001282FD1FFE7029972
:1020F000022081F8200002980168086820F00100A1
:10210000086000F0A5FD0190FFE7029800684068B4
:10211000C007A8B1FFE700F09BFD0199401A0B280A
:102120000DD3FFE70299486A40F4003048620299F3
:10213000052081F8200001208DF80F000FE0E4E772
:102140000299002048628DF80F0008E00299486A61
:1021500040F40020486201208DF80F00FFE79DF851
:102160000F0004B080BD000081B0009001B0704746
:1021700081B0009001B0704781B0009001B070470D
:1021800081B0009001B0704781B0009001B07047FD
:1021900081B0009001B0704781B0009001B07047ED
:1021A00080B584B002900298806D019000F050FDDF
:1021B0000090029890F8350002280DD0FFE70299B0
:1021C00080204865FFE70299002081F83400FFE78E
:1021D00001208DF80F0055E002980168086820F092
:1021E0001600086002980168486920F08000486184
:1021F0000298006C20B9FFE70298806C38B1FFE7C5
:1022000002980168086820F008000860FFE702985B
:102210000168086820F001000860FFE70298006884
:102220000068C007C8B1FFE700F012FD0099401A2E
:10223000062811D3FFE70299202048650299032060
:1022400081F83500FFE70299002081F83400FFE7AC
:1022500003208DF80F0015E0E0E70298C16D3F20E4
:102260008840019988600299012081F83500FFE7D4
:102270000299002081F83400FFE7FFE700208DF885
:102280000F00FFE79DF80F0004B080BD82B0009002
:10229000009890F83500022807D0FFE700998020C9
:1022A000486501208DF807000EE00099052081F8AF
:1022B000350000980168086820F001000860FFE719
:1022C00000208DF80700FFE79DF8070002B0704777
:1022D00080B586B005900020039040F20400C2F261
:1022E0000000006848F2B511C1F64E31A0FB0110A4
:1022F000800A02900598806D019001980068049012
:1023000004980599C96DC840000700281AD5FFE751
:102310000598006800684007002812D5FFE7059877
:102320000168086820F0040008600598C16D082065
:102330008840019988600599486D40F00100486522
:10234000FFE7FFE704980599C96DC840C007A0B131
:10235000FFE7059800684069000600280CD5FFE7F4
:102360000598C16D01208840019988600599486DE4
:1023700040F002004865FFE7FFE704980599C96D42
:10238000C8404007002814D5FFE70598006800689A
:10239000800700280CD5FFE70598C16D0420884010
:1023A000019988600599486D40F004004865FFE791
:1023B000FFE704980599C96DC840C006002847D5B5
:1023C000FFE7059800680068000700283FD5FFE791
:1023D0000598C16D102088400199886005980068B3
:1023E0000068400300281AD5FFE7059800680068D8
:1023F0000003002809D4FFE70598006C20B1FFE72F
:102400000598016C8847FFE708E00598806C20B1CB
:10241000FFE70598816C8847FFE7FFE716E005981E
:1024200000680068C005002807D4FFE70598016828
:10243000086820F008000860FFE70598006C20B1EC
:10244000FFE70598016C8847FFE7FFE7FFE7FFE735
:1024500004980599C96DC8408006002840F18D8018
:10246000FFE7059800680068C006002840F18480F6
:10247000FFE70598C16D2020884001998860059884
:1024800090F83500052834D1FFE705980168086801
:1024900020F01600086005980168486920F0800067
:1024A00048610598006C20B9FFE70598806C38B149
:1024B000FFE705980168086820F008000860FFE75A
:1024C0000598C16D3F2088400199886005990120D9
:1024D00081F83500FFE70599002081F83400FFE717
:1024E0000598006D20B1FFE70598016D8847FFE76B
:1024F0007BE0059800680068400300281AD5FFE7D4
:102500000598006800680003002809D4FFE70598D3
:10251000406C20B1FFE70598416C8847FFE708E071
:102520000598C06B20B1FFE70598C16B8847FFE7AE
:10253000FFE720E0059800680068C005002811D476
:10254000FFE705980168086820F010000860059909
:10255000012081F83500FFE70599002081F834005B
:10256000FFE7FFE70598C06B20B1FFE70598C16B57
:102570008847FFE7FFE7FFE7FFE70598406DA0B357
:10258000FFE70598406DC00730B3FFE705990520C8
:1025900081F8350005980168086820F0010008609E
:1025A000FFE70398013003900299884201D9FFE7C1
:1025B00007E0FFE7059800680068C0070028F0D131
:1025C000FFE70599012081F83500FFE70599002014
:1025D00081F83400FFE7FFE70598C06C20B1FFE702
:1025E0000598C16C8847FFE7FFE706B080BD000093
:1025F00080B586B004900020039000F029FB029083
:10260000049820B9FFE701208DF81700A3E0049893
:10261000406A08B1FFE7FFE70499022081F835001E
:10262000FFE70499002081F83400FFE7049801686F
:10263000086820F001000860FFE70498006800685F
:10264000C00790B1FFE700F003FB0299401A06288B
:102650000AD3FFE70499202048650499032081F8F4
:1026600035008DF8170076E0E7E704980068006809
:102670000390039848F23F01CFF210010840039005
:10268000049900914868D1F808C0CB680A6940EA0B
:102690000C00184310434A6910438A691043CA6901
:1026A0001043096A01430398084303900498406A61
:1026B000042808D1FFE70499C86A096B014303980D
:1026C00008430390FFE70398049909680860049899
:1026D000006840690390039820F007000390049875
:1026E000416A0398084303900498406A04281AD169
:1026F000FFE70498816A0398084303900498C06A2E
:1027000080B1FFE70498FEF7DBFB50B1FFE70499C7
:10271000402048650499012081F835008DF81700A4
:1027200019E0FFE7FFE703980499096848610498F6
:10273000FEF79AFB01900498C16D3F2088400199F3
:102740008860049900204865049A012182F83510B8
:102750008DF81700FFE79DF8170006B080BD000058
:1027600080B588B0069005910492039300208DF8FF
:102770000B000698806D0190FFE7069890F83400F2
:10278000012804D1FFE702208DF81F0045E00699DB
:10279000012081F83400FFE7FFE7069890F8350044
:1027A00001282BD1FFE70699022081F83500069910
:1027B0000020486506980599049A039BFEF7F8FBEC
:1027C0000698C16D3F20884001998860069801688D
:1027D000086840F0160008600698006C38B1FFE702
:1027E00006980168086840F008000860FFE706984E
:1027F0000168086840F00100086009E0FFE70699F9
:10280000002081F83400FFE702208DF80B00FFE77D
:102810009DF80B008DF81F00FFE79DF81F0008B022
:1028200080BD000080B584B0039000F011FA0290E2
:10283000039801900198013048B1FFE740F2080089
:10284000C2F200000178019808440190FFE7FFE719
:1028500000F0FEF90299401A0199884201D2FFE77F
:10286000F6E704B080BD00008EB00D900C91002002
:102870000A90099008900B90FFE70B980F2800F240
:10288000CC81FFE70B99012088400A900C980068E2
:102890000A990840099009980A99884240F0B8813D
:1028A000FFE70C98406800F00300012807D0FFE71D
:1028B0000C98406800F0030002282FD1FFE70D9824
:1028C000806808900B984100032000FA01F10898F5
:1028D000884308900C98C0680B99490000FA01F1F0
:1028E00008980843089008980D9988600D984068EA
:1028F00008900B99012000FA01F10898884308908C
:102900000C984068C0F300100B9900FA01F1089888
:102910000843089008980D994860FFE70C984068B4
:1029200000F00300032818D0FFE70D98C068089056
:102930000B984100032000FA01F1089888430890A1
:102940000C9880680B99490000FA01F10898084337
:10295000089008980D99C860FFE70C98406800F04F
:102960000300022826D1FFE70D980B996FF00302B0
:1029700002EA51010844006A08900B9800F0070031
:1029800081000F2000FA01F10898884308900C9804
:1029900000690B9901F00701890000FA01F108981C
:1029A0000843089008980D990B9B02EA53021144C2
:1029B0000862FFE70D98006808900B98410003201B
:1029C00000FA01F10898884308900C98406800F0DC
:1029D00003000B99490000FA01F108980843089098
:1029E00008980D9908600C9880798007002800F0FD
:1029F0000E81FFE7FFE70020079043F64400C4F292
:102A00000200016841F480410160006800F48040E8
:102A100007900798FFE70B9820F0030043F60801A2
:102A2000C4F20101405808900B9800F003008100A7
:102A30000F2000FA01F10898884308900D980021B2
:102A4000C4F20201884203D1FFE7002006905EE055
:102A50000D9840F20041C4F20201884203D1FFE721
:102A60000120059050E00D9840F60001C4F20201EB
:102A7000884203D1FFE70220049042E00D9840F61F
:102A80000041C4F20201884203D1FFE70320039012
:102A900034E00D9841F20001C4F20201884203D1F2
:102AA000FFE70420029026E00D9841F20041C4F2B5
:102AB0000201884203D1FFE70520019018E00D983C
:102AC00041F60001C4F20201884203D1FFE706206B
:102AD00000900AE00D9941F60042C4F2020208207B
:102AE000914208BF07200090FFE700980190FFE7A0
:102AF00001980290FFE702980390FFE70398049083
:102B0000FFE704980590FFE705980690FFE7069811
:102B1000C0B20B9901F00301890000FA01F1089895
:102B20000843089008980B9921F0030143F6080226
:102B3000C4F20102885043F60840C4F20100006864
:102B4000089009990898884308900C988079C006E5
:102B5000002805D5FFE70999089808430890FFE782
:102B6000089843F60841C4F20101086043F60C409E
:102B7000C4F20100006808900999089888430890F9
:102B80000C9880798006002805D5FFE709990898F8
:102B900008430890FFE7089843F60C41C4F201018E
:102BA000086043F60440C4F20100006808900999E7
:102BB0000898884308900C9880798007002805D5EC
:102BC000FFE70999089808430890FFE7089843F63B
:102BD0000441C4F20101086043F60040C4F2010060
:102BE0000068089009990898884308900C988079A3
:102BF000C00728B1FFE70999089808430890FFE744
:102C0000089843F60041C4F201010860FFE7FFE7BE
:102C1000FFE70B9801300B902FE60EB070470000D5
:102C200082B00190ADF802108DF801209DF80100EE
:102C300028B1FFE7BDF802000199886105E0BDF801
:102C40000200000401998861FFE702B070470000AC
:102C500044F6E420C2F200000068704740F2080029
:102C6000C2F20000027844F6E421C2F200010868D2
:102C7000104408607047000080B543F60041C4F27C
:102C80000201086840F400700860086840F4806041
:102C90000860086840F480700860032000F0C6F8FF
:102CA0000F2000F005F800F071F8002080BD000052
:102CB00080B58CB00B90002005900490FFE70020B9
:102CC000019043F64400C4F20200016841F00101A2
:102CD0000160006800F0010001900198FFE706A87C
:102CE00003A900F0DDF900F01DFA400005900598F9
:102CF0004DF68361C4F21B31A0FB01014FF0FF30A0
:102D000000EB9140049040F2FC70C2F20000002100
:102D1000C4F20101016040F2E731C16004994160F1
:102D2000002101618160816100F07CFE8DF80B0063
:102D30009DF80B0028BBFFE740F2FC70C2F20000D8
:102D400000F00AFF8DF80B009DF80B00C0B9FFE7FB
:102D5000192000F047F80B980F280CD8FFE70B99C3
:102D60001920002200F048F80B9840F20C01C2F242
:102D70000001086003E001208DF80B00FFE7FFE78A
:102D8000FFE79DF80B000CB080BD000080B582B05D
:102D9000FFE70020019043F64400C4F202000168FE
:102DA00041F480410160006800F480400190019886
:102DB000FFE7FFE70020009043F64000C4F2020066
:102DC000016841F080510160006800F0805000907F
:102DD0000098FFE76FF001000F21002200F00CF8CF
:102DE00002B080BD80B582B08DF807009DF9070064
:102DF00003F07CFD02B080BD80B586B08DF8170071
:102E0000049103920020029003F088FD02909DF946
:102E10001700019002980499039A02F03DF90146C7
:102E2000019803F083FD06B080BD000080B582B03C
:102E30000190019803F0BEFD02B080BD80B584B062
:102E400002900191029820B9FFE701208DF80F0050
:102E500021E1019843F60041C4F20201096801F042
:102E60000701884212D9FFE7019943F60040C4F2F6
:102E700002000170006800F007000199884204D048
:102E8000FFE701208DF80F0005E1FFE702980078C9
:102E9000800700282AD5FFE702980078400700281D
:102EA00009D5FFE743F60801C4F20201086840F4BF
:102EB000E0500860FFE7029800780007002809D575
:102EC000FFE743F60801C4F20201086840F46040DD
:102ED0000860FFE743F60801C4F20201086820F029
:102EE000F000029A926810430860FFE702980078A9
:102EF000C00700286ED0FFE702984068012811D172
:102F0000FFE743F60000C4F20200006800F400315D
:102F10000020B0EB514F04D1FFE701208DF80F00E6
:102F2000B9E02CE002984068022805D0FFE702983B
:102F30004068032811D1FFE743F60000C4F2020005
:102F4000006800F000710020B0EB516F04D1FFE782
:102F500001208DF80F009EE010E043F60000C4F25F
:102F60000200006800F002010020B0EB510F04D114
:102F7000FFE701208DF80F008DE0FFE7FFE743F644
:102F80000801C4F20201086820F00300029A5268A6
:102F900010430860FFF75CFE0090FFE743F608006F
:102FA000C4F20200006800F00C0002994968B0EB1E
:102FB000810F0ED0FFE7FFF74BFE0099401A41F258
:102FC0008931884204D3FFE703208DF80F0062E0C7
:102FD000E4E7FFE7019843F60041C4F20201096803
:102FE00001F00701884212D2FFE7019943F6004041
:102FF000C4F202000170006800F0070001998842E5
:1030000004D0FFE701208DF80F0044E0FFE70298AD
:103010000078400700280CD5FFE743F60801C4F20A
:103020000201086820F4E050029AD2681043086058
:10303000FFE702980078000700280DD5FFE743F668
:103040000801C4F20201086820F46040029A126983
:1030500040EAC2000860FFE700F076F843F6080196
:10306000C4F202010968C9B20A0949F6B421C0F6DE
:103070000001895CC84040F20401C2F2000108600E
:1030800040F20C00C2F200000068FFF711FE0020C1
:103090008DF80F00FFE79DF80F0004B080BD000021
:1030A00082B00190009101990F20086043F608005A
:1030B000C4F20200016801F00301019A5160016845
:1030C00001F0F001019A9160016801F4E051019A68
:1030D000D160006800F46040C0080199086143F6BF
:1030E0000040C4F20200006800F007000099086088
:1030F00002B0704740F20400C2F20000006870475E
:1031000080B5FFF7F7FF43F60801C4F20201096832
:10311000C1F3822249F6C421C0F60001895CC8408F
:1031200080BD000080B5FFF7E5FF43F60801C4F25B
:103130000201096889B24A0B49F6C421C0F60001B0
:10314000895CC84080BD000080B586B00020059035
:1031500004900390029043F60800C4F20200006855
:1031600000F00C000146019140B1FFE701980428EE
:103170000AD0FFE7019808280CD04FE042F2004047
:10318000C0F2F40002904FE047F64000C0F27D101C
:10319000029049E043F60400C4F20200016801F025
:1031A0003F01059100684002002813D5FFE743F670
:1031B0000400C4F202000068C0F3881047F6400122
:1031C000C0F27D11A0FB0101059A0023FDF762F812
:1031D000049012E043F60400C4F202000068C0F359
:1031E000881042F20041C0F2F401A0FB0101059AEF
:1031F0000023FDF74FF80490FFE743F60400C4F204
:103200000200006800F44031022000EBD13003904E
:1032100004980399B0FBF1F0029005E042F20040FF
:10322000C0F2F4000290FFE7029806B080BD0000F3
:1032300080B586B00490049820B9FFE701208DF88E
:10324000170050E304980078C007002800F0A5801C
:10325000FFE743F60800C4F20200006800F00C002B
:10326000042813D0FFE743F60800C4F20200006808
:1032700000F00C0008281ED1FFE743F60400C4F25A
:10328000020000684002002815D5FFE743F6000061
:10329000C4F20200006800F400310020B0EB514F8E
:1032A00008D0FFE70498406820B9FFE701208DF8B7
:1032B000170018E370E0FFE704984068B0F5803F1E
:1032C00009D1FFE743F60001C4F20201086840F4A7
:1032D0008030086020E004984068B0F5A02F0DD140
:1032E000FFE743F60001C4F20201086840F48020C1
:1032F0000860086840F4803008600CE043F6000184
:10330000C4F20201086820F480300860086820F4E4
:1033100080200860FFE7FFE7FFE704984068E8B116
:10332000FFE7FFF795FC0390FFE743F60000C4F2C8
:103330000200006800F400310020B0EB514F0CD1C6
:10334000FFE7FFF785FC0399401A652804D3FFE7E0
:1033500003208DF81700C6E2E7E71CE0FFF778FCD2
:103360000390FFE743F60000C4F20200006800F497
:1033700000310020B0EB514F0CD0FFE7FFF768FCA5
:103380000399401A652804D3FFE703208DF817003E
:10339000A9E2E7E7FFE7FFE7FFE704980078800787
:1033A000002840F19680FFE743F60800C4F20200CF
:1033B000006810F00C0F13D0FFE743F60800C4F2CA
:1033C0000200006800F00C0008282CD1FFE743F64B
:1033D0000400C4F2020000684002002823D4FFE782
:1033E00043F60000C4F20200006800F00201002071
:1033F000B0EB510F09D0FFE70498C068012804D052
:10340000FFE701208DF817006DE243F60001C4F2DA
:103410000201086820F0F800049A126940EAC2002C
:103420000860FFE754E00498C06870B3FFE700212C
:10343000C4F2472101200860FFF70AFC0390FFE770
:1034400043F60000C4F20200006800F00201002010
:10345000B0EB510F0CD1FFE7FFF7FAFB0399401ACD
:10346000032804D3FFE703208DF817003BE2E7E7CA
:1034700043F60001C4F20201086820F0F800049A43
:10348000126940EAC200086021E00021C4F247212D
:1034900000200860FFF7DCFB0390FFE743F6000025
:1034A000C4F20200006800F002010020B0EB510FEE
:1034B0000CD0FFE7FFF7CCFB0399401A032804D395
:1034C000FFE703208DF817000DE2E7E7FFE7FFE7CE
:1034D000FFE704980078000700284BD5FFE7049821
:1034E000406918B3FFE740F68061C4F2472101202C
:1034F0000860FFF7ADFB0390FFE743F67400C4F2EA
:103500000200006800F002010020B0EB510F0CD166
:10351000FFE7FFF79DFB0399401A032804D3FFE759
:1035200003208DF81700DEE1E7E722E040F6806136
:10353000C4F2472100200860FFF78AFB0390FFE7F1
:1035400043F67400C4F20200006800F0020100209B
:10355000B0EB510F0CD0FFE7FFF77AFB0399401A4D
:10356000032804D3FFE703208DF81700BBE1E7E74A
:10357000FFE7FFE7049800784007002840F1CE807D
:10358000FFE700208DF8070043F64000C4F2020078
:103590000068C000002815D4FFE7FFE70020009076
:1035A00043F64000C4F20200016841F0805101601E
:1035B000006800F0805000900098FFE701208DF82F
:1035C0000700FFE747F20000C4F200000068C005F2
:1035D000002822D4FFE747F20001C4F20001086886
:1035E00040F480700860FFF733FB0390FFE747F279
:1035F0000000C4F200000068C00500280CD4FFE7FA
:10360000FFF726FB0399401A032804D3FFE70320A2
:103610008DF8170067E1EAE7FFE7FFE704988068A5
:10362000012809D1FFE743F67001C4F202010868DE
:1036300040F0010008601FE00498806805280DD163
:10364000FFE743F67001C4F20201086840F004008D
:103650000860086840F0010008600CE043F6700163
:10366000C4F20201086820F001000860086820F038
:1036700004000860FFE7FFE7FFE704988068F8B1FF
:10368000FFE7FFF7E5FA0390FFE743F67000C4F2A7
:103690000200006800F002010020B0EB510F0ED1D3
:1036A000FFE7FFF7D5FA0399401A41F289318842C2
:1036B00004D3FFE703208DF8170014E1E5E71EE0CF
:1036C000FFF7C6FA0390FFE743F67000C4F202006A
:1036D000006800F002010020B0EB510F0ED0FFE7B0
:1036E000FFF7B6FA0399401A41F28931884204D3B0
:1036F000FFE703208DF81700F5E0E5E7FFE79DF809
:103700000700012809D1FFE743F64001C4F2020196
:10371000086820F080500860FFE7FFE704988069A0
:10372000002800F0DC80FFE743F60800C4F2020046
:10373000006800F00C00082800F08580FFE704987E
:10374000806902285CD1FFE76021C4F24721002094
:103750000860FFF77DFA0390FFE743F60000C4F22C
:103760000200006800F000710020B0EB516F0CD037
:10377000FFE7FFF76DFA0399401A032804D3FFE728
:1037800003208DF81700AEE0E7E70499C869D1F887
:1037900020C04B6A8A6A40EA0C0040EA8310D203D8
:1037A0004FF6FF739A43A2F580321043C96A40EA8C
:1037B000016043F60401C4F2020108606021C4F212
:1037C000472101200860FFF743FA0390FFE743F623
:1037D0000000C4F20200006800F000710020B0EBAD
:1037E000516F0CD1FFE7FFF733FA0399401A032812
:1037F00004D3FFE703208DF8170074E0E7E721E02A
:103800006021C4F2472100200860FFF721FA0390ED
:10381000FFE743F60000C4F20200006800F0007108
:103820000020B0EB516F0CD0FFE7FFF711FA0399BE
:10383000401A032804D3FFE703208DF8170052E055
:10384000E7E7FFE74AE004988069012804D1FFE731
:1038500001208DF8170046E043F60400C4F2020090
:103860000068029004988069012831D0FFE702982F
:1038700000F480000499C969884229D1FFE70298C1
:1038800000F03F000499096A884221D1FFE70298BD
:1038900047F6C07108400499496AB0EB811F17D1FF
:1038A000FFE7029800F440300499896AC9034FF693
:1038B000FF729143A1F58031884209D1FFE7029858
:1038C00000F070600499C96AB0EB016F04D0FFE7A3
:1038D00001208DF8170006E0FFE7FFE7FFE7002073
:1038E0008DF81700FFE79DF8170006B080BD0000B7
:1038F00081B0009001B0704781B0009001B0704776
:1039000085B003900291FFE7039890F83C000128EE
:1039100004D1FFE702208DF813007EE00399012017
:1039200081F83C00FFE7FFE70399022081F83D00A2
:1039300003980068406801900398006880680090D0
:10394000019820F0700001900298016801980843E6
:103950000190019803990968486003980068002164
:10396000C4F2010188423CD0FFE703980068B0F13F
:10397000804F36D0FFE70398006840F20041C4F260
:10398000000188422DD0FFE70398006840F600014F
:10399000C4F20001884224D0FFE70398006840F693
:1039A0000041C4F2000188421BD0FFE70398006881
:1039B00040F20041C4F20101884212D0FFE70398AF
:1039C000006844F20001C4F20101884209D0FFE717
:1039D0000398006841F60001C4F2000188420ED14C
:1039E000FFE7009820F0800000900298416800985E
:1039F000084300900098039909688860FFE70399DD
:103A0000012081F83D00FFE70399002081F83C0088
:103A1000FFE700208DF81300FFE79DF8130005B0C5
:103A20007047000080B582B00090009820B9FFE791
:103A300001208DF807003FE0009890F83D0040B964
:103A4000FFE70099002081F83C00009800F038F86A
:103A5000FFE70099022081F83D00009951F8040B1E
:103A600001F040FC0099012081F84600FFE7009931
:103A7000012081F83E00009981F83F00009981F80B
:103A80004000009981F84100FFE7FFE7009901201D
:103A900081F84200009981F84300009981F84400C0
:103AA000009981F84500FFE70099012081F83D0069
:103AB00000208DF80700FFE79DF8070002B080BDE9
:103AC00080B586B0059005980068B0F1804F1BD195
:103AD000FFE7FFE70020049043F64000C4F2020035
:103AE000016841F001010160006800F001000490EC
:103AF0000498FFE71C20029005210022FFF77CF9C3
:103B00000298FFF76FF924E00598006840F2004141
:103B1000C4F2000188421BD1FFE7FFE700200390B9
:103B200043F64000C4F20200016841F00201016066
:103B3000006800F0020003900398FFE71D20019049
:103B400005210022FFF758F90198FFF74BF9FFE72D
:103B5000FFE706B080BD000083B00190019890F8A7
:103B60003D00012804D0FFE701208DF80B006AE03A
:103B70000199022081F83D0001980168C86840F071
:103B80000100C860019800680021C4F20101884268
:103B90003CD0FFE701980068B0F1804F36D0FFE7D6
:103BA0000198006840F20041C4F2000188422DD023
:103BB000FFE70198006840F60001C4F20001884266
:103BC00024D0FFE70198006840F60041C4F20001EC
:103BD00088421BD0FFE70198006840F20041C4F220
:103BE0000101884212D0FFE70198006844F2000109
:103BF000C4F20101884209D0FFE70198006841F64C
:103C00000001C4F20001884212D1FFE70198006868
:103C1000806800F0070000900098062807D0FFE7B2
:103C200001980168086840F001000860FFE706E0BD
:103C300001980168086840F001000860FFE7002073
:103C40008DF80B00FFE79DF80B0003B070470000F4
:103C500080B586B00490039100208DF80B00FFE73B
:103C6000049890F83C00012804D1FFE702208DF869
:103C70001700ABE00499012081F83C00FFE7FFE763
:103C80000499022081F83D00049800688068019042
:103C9000019820F077000190019820F47F40019076
:103CA00001980499096888600398006800900028CA
:103CB00072D0FFE7009810286ED0FFE70098202808
:103CC0006AD0FFE70098302866D0FFE700984028C8
:103CD00055D0FFE70098502837D0FFE700986028BC
:103CE00040D0FFE7009870280BD0FFE70098B0F5B0
:103CF000805F05D0FFE70098B0F5005F16D052E076
:103D000055E004980068039B5A689968DB6801F0E5
:103D1000BBFB0498006880680190019840F0770030
:103D20000190019804990968886040E0049800684F
:103D3000039B5A689968DB6801F0A6FB0498016848
:103D4000886840F48040886031E004980068039AF5
:103D50005168D26801F0FAFB04980068502101F024
:103D6000ADFB24E004980068039A5168D26801F022
:103D700015FC04980068602101F0A0FB17E004988E
:103D80000068039A5168D26801F0E0FB049800686B
:103D9000402101F093FB0AE0049800680399096848
:103DA00001F08CFB03E001208DF80B00FFE7049984
:103DB000012081F83D00FFE70499002081F83C00D4
:103DC000FFE79DF80B008DF81700FFE79DF817003F
:103DD00006B080BD81B0009001B0704780B584B05E
:103DE000039003980068C068029003980068006917
:103DF00001909DF804008007002824D5FFE79DF876
:103E00000800800700281DD5FFE7039801686FF0C0
:103E1000020008610399012008770398006880690F
:103E2000800720B1FFE70398FFF7D4FF06E003986F
:103E300000F0E2F8039800F0E3F8FFE703990020B0
:103E40000877FFE7FFE79DF804004007002825D525
:103E5000FFE79DF80800400700281ED5FFE70398FC
:103E600001686FF004000861039902200877039845
:103E70000068806910F4407F04D0FFE70398FFF7E3
:103E8000A9FF06E0039800F0B7F8039800F0B8F82F
:103E9000FFE7039900200877FFE7FFE79DF804009C
:103EA0000007002824D5FFE79DF808000007002838
:103EB0001DD5FFE7039801686FF0080008610399BA
:103EC0000420087703980068C069800720B1FFE7E5
:103ED0000398FFF77FFF06E0039800F08DF8039842
:103EE00000F08EF8FFE7039900200877FFE7FFE76F
:103EF0009DF80400C006002825D5FFE79DF80800BE
:103F0000C00600281ED5FFE7039801686FF0100077
:103F1000086103990820087703980068C06910F4C5
:103F2000407F04D0FFE70398FFF754FF06E00398B3
:103F300000F062F8039800F063F8FFE703990020AF
:103F40000877FFE7FFE79DF80400C00778B1FFE7B7
:103F50009DF80800C00748B1FFE7039801686FF0BB
:103F600001000861039800F04FF8FFE7FFE79DF8B4
:103F700004000006002810D5FFE79DF808000006A1
:103F8000002809D5FFE7039801686FF080000861F9
:103F90000398FFF7ADFCFFE7FFE79DF8040040063C
:103FA000002810D5FFE79DF808004006002809D535
:103FB000FFE7039801686FF040000861039800F084
:103FC00037F8FFE7FFE79DF804008006002810D5CA
:103FD000FFE79DF808008006002809D5FFE7039851
:103FE00001686FF0200008610398FFF785FCFFE788
:103FF000FFE704B080BD000081B0009001B07047C1
:1040000081B0009001B0704780B582B001900198F6
:1040100000680021C4F20101884203D1FFE7FEF7E6
:104020001DFEFFE7019801F05FFA02B080BD0000BD
:1040300081B0009001B0704780B586B004900391C4
:10404000ADF80A20049890F84200202848D1FFE7F4
:10405000039820B1FFE7BDF80A0020B9FFE701206F
:104060008DF8170040E004990120086304990020AE
:10407000486304980399BDF80A2001F065FD8DF8A6
:1040800009000498006B012821D1FFE7FFE7002019
:1040900001900498006800680190049800684068E6
:1040A00001900198FFE7FFE7FFE70498006850E8F8
:1040B000030F40F010000090FFE700990498026899
:1040C00042E803100028F0D1FFE7FFE703E00120FA
:1040D0008DF80900FFE79DF809008DF8170003E04F
:1040E00002208DF81700FFE79DF8170006B080BD8D
:1040F00080B582B00190ADF802100198006841F2DD
:104100000001C4F2010188420CD1FFE740F6D4005F
:10411000C2F2000040F6D961C2F200010122FFF7AD
:104120008BFFFFE70198006844F20041C4F20001F0
:1041300088420CD1FFE740F61C10C2F2000040F6A6
:10414000DA61C2F200010522FFF776FFFFE702B055
:1041500080BD000080B582B001900198406C0007DE
:1041600000280ED5FFE7FFE70020009001980068C7
:104170000068009001980068406800900098FFE790
:10418000FFE740F61C10C2F2000040F6DA61C2F20E
:104190000001052200F0F4FB02B080BD80B592B0B2
:1041A0001190119800680068109011980068C0681C
:1041B0000F901198006840690E9000200D900C90AF
:1041C000109800F00F000D900D9888B9FFE79DF84A
:1041D0004000800600280AD5FFE79DF83C008006D5
:1041E000002804D5FFE7119801F05CFB02E2FFE72D
:1041F0000D98002800F0C280FFE79DF83800C00746
:1042000038B9FFE7BDF83C0010F4907F00F0B680AD
:10421000FFE79DF84000C00758B1FFE79DF83D005B
:10422000C00730B1FFE71199486C40F001004864C5
:10423000FFE79DF84000400700280BD5FFE79DF8F9
:104240003800C00730B1FFE71199486C40F0020018
:104250004864FFE79DF84000800700280BD5FFE782
:104260009DF83800C00730B1FFE71199486C40F065
:1042700004004864FFE79DF840000007002811D5BE
:10428000FFE79DF83C008006002805D4FFE79DF875
:104290003800C00730B1FFE71199486C40F00800C2
:1042A0004864FFE71198406C002866D0FFE79DF84E
:1042B0004000800600280AD5FFE79DF83C008006F4
:1042C000002804D5FFE7119801F0ECFAFFE71198F8
:1042D00000684069C0F380100C901198406C000792
:1042E000002804D4FFE70C9800283ED0FFE711987F
:1042F00001F05EFA119800684069400600282FD549
:10430000FFE7FFE7FFE71198006850E8050F20F08E
:1043100040000B90FFE70B991198026842E80510E6
:104320000028F0D1FFE7FFE71198C06B98B1FFE7D5
:104330001198C16B45F2F150C0F600000865119864
:10434000C06BFDF7A3FF28B1FFE71198C06B016DAB
:104350008847FFE703E01198FFF7FCFEFFE703E063
:104360001198FFF7F7FEFFE706E01198FFF7F2FE5E
:10437000119900204864FFE7FFE73BE11198006BCB
:10438000012840F01781FFE79DF84000C006002893
:1043900040F11081FFE79DF83C00C006002840F185
:1043A0000981FFE7FFE700200A9011980068006884
:1043B0000A901198006840680A900A98FFE71198DF
:1043C000006840694006002840F19A80FFE7119894
:1043D000C06B00684068ADF82600BDF826000028D4
:1043E00075D0FFE7BDF826001199898D88426EDAF5
:1043F000FFE7BDF826001199C8851198C06BC06908
:10440000B0F5807F58D0FFE7FFE7FFE7119800681D
:1044100050E8030F20F480700890FFE70899119886
:10442000026842E803100028F0D1FFE7FFE7FFE74A
:10443000FFE71198006850E8050F20F00100079091
:10444000FFE707991198026842E805100028F0D1AB
:10445000FFE7FFE7FFE7FFE71198006850E8050F67
:1044600020F040000690FFE706991198026842E8A4
:1044700005100028F0D1FFE7FFE71199202081F80F
:104480004200119900200863FFE7FFE711980068D8
:1044900050E8030F20F010000590FFE705991198F0
:1044A000026842E803100028F0D1FFE7FFE7119807
:1044B000C06BFDF775FEFFE7119902204863119864
:1044C000818DC28D891A89B2FFF712FE17E0BDF8FF
:1044D00026001199898D884210D1FFE71198C06B91
:1044E000C069B0F5807F08D1FFE7119902204863C9
:1044F0001198818DFFF7FCFDFFE7FFE7FFE779E00B
:104500001199888DC98D401AADF812001198C08D8F
:1045100000284ED0FFE7BDF81200002849D0FFE781
:10452000FFE7FFE71198006850E8030F20F4907050
:104530000390FFE703991198026842E803100028EE
:10454000F0D1FFE7FFE7FFE7FFE71198006850E8C9
:10455000050F20F001000290FFE702991198026810
:1045600042E805100028F0D1FFE7FFE7119920206D
:1045700081F84200119900200863FFE7FFE71198D6
:10458000006850E8030F20F010000190FFE7019948
:104590001198026842E803100028F0D1FFE7FFE716
:1045A0001199022048631198BDF81210FFF7A0FD81
:1045B000FFE71FE09DF84000000600280AD5FFE74E
:1045C0009DF83C000006002804D5FFE7119801F093
:1045D0006BFB0FE09DF84000400600280AD5FFE77E
:1045E0009DF83C004006002804D5FFE7119801F033
:1045F00029F9FFE712B080BD80B582B00090009825
:1046000020B9FFE701208DF8070040E0009880699D
:1046100008B1FFE700E0FFE7009890F8410040B9DB
:10462000FFE70099002081F84000009800F034F87E
:10463000FFE70099242081F8410000980168C868CC
:1046400020F40050C860009801F0E0F9009801687B
:10465000086920F49040086100980168486920F0DA
:104660002A00486100980168C86840F40050C8609A
:10467000009900204864009A202182F84110009A95
:1046800082F84210009948638DF80700FFE79DF813
:10469000070002B080BD000080B59EB01D900020D4
:1046A0001C901B901A90199018901D98006841F268
:1046B0000001C4F20101884240F0AC80FFE7FFE74F
:1046C0000020179043F64400C4F20200016841F054
:1046D00010010160006800F0100017901798FFE7C4
:1046E000FFE70020169043F63000C4F20200016894
:1046F00041F001010160006800F001001690169879
:10470000FFE74FF40070189002200C9019900020E1
:1047100012901A9003200D901B9007200E901C9071
:104720000020C4F202000F9018A91091FEF79CF827
:10473000DDF830C00D9B0E9A0F9810994FF4806EE3
:10474000CDF844E0CDF860E0CDF864C04FF0010C46
:10475000CDF868C01B931C92FEF786F8119A129947
:1047600040F26C60C2F20000139046F24043C4F283
:10477000020303604FF0006343608160C160026127
:1047800041618161C16101624162FDF731FF18B190
:10479000FFE7FCF763FDFFE7FFE71D9840F26C6160
:1047A000C2F20001C1631D988863FFE740F2CC604C
:1047B000C2F200000B9046F2B841C4F2020101605F
:1047C0004FF000614160402181600021C1604FF4E1
:1047D0008062026141618161C16101624162FDF7F4
:1047E00007FF18B1FFE7FCF739FDFFE7FFE71D986A
:1047F00040F2CC61C2F2000181631D988863FFE73B
:1048000025200A9005210022FEF7F6FA0A98FEF705
:10481000E9FAB3E01D98006844F20041C4F20001D7
:10482000884240F0AA80FFE7FFE70020159043F69A
:104830004000C4F20200016841F4003101600068E8
:1048400000F4003015901598FFE7FFE70020149062
:1048500043F63000C4F20200016841F0010101603A
:10486000006800F0010014901498FFE704201890ED
:10487000022003901990002008901A9003200490C1
:104880001B90072005901C900020C4F202000690A7
:1048900018A90791FDF7E8FFDDF80CC0049B059A05
:1048A000069807994FF0080ECDF860E0CDF864C087
:1048B0004FF0010CCDF868C01B931C92FDF7D4FF9C
:1048C000089940F22C70C2F20000099046F288026A
:1048D000C4F2020202604FF0006242608160C16077
:1048E0004FF48062026141618161C1610162416294
:1048F000FDF77EFE18B1FFE7FCF7B0FCFFE7FFE72E
:104900001D9840F22C71C2F20001C1631D988863AA
:10491000FFE740F28C70C2F20000029046F2A00164
:10492000C4F2020101604FF00061416040218160EA
:104930000021C1604FF48062026141618161C16107
:1049400001624162FDF754FE18B1FFE7FCF786FCF7
:10495000FFE7FFE71D9840F28C71C2F2000181630E
:104960001D988863FFE72620019005210022FEF7AD
:1049700043FA0198FEF736FAFFE7FFE71EB080BD65
:1049800080B584B002900191ADF80220029890F8B1
:104990004200202817D1FFE7019820B1FFE7BDF8BA
:1049A000020020B9FFE701208DF80F000FE0029907
:1049B0000020086302980199BDF8022001F0C4F8B4
:1049C0008DF80F0003E002208DF80F00FFE79DF83F
:1049D0000F0004B080BD000080B582B00190019846
:1049E000006841F20001C4F20101884211D1FFE7E1
:1049F00040F6D960C2F2000000900078FCF700FB9E
:104A0000009940F6D400C2F200000122FFF7B8FF7F
:104A1000FFE70198006844F20041C4F200018842B7
:104A20000CD1FFE740F61C10C2F2000040F6DA613C
:104A3000C2F200010522FFF7A3FFFFE702B080BD2D
:104A400081B0009001B0704781B0009001B0704714
:104A5000FFE7FEE780B582B00190FFE700F002F8C3
:104A6000FCE7000080B588B00020C4F20200069088
:104A70001021009101220392FEF7D2F8C82007907E
:104A800001F0F6FF0099069800220592FEF7C8F89B
:104A9000079801F0EDFF039A069820210191FEF797
:104AA000BFF8079801F0E4FF0199059A0698FEF710
:104AB000B7F8079801F0DCFF039A069840210291AD
:104AC000FEF7AEF8079801F0D3FF0299059A069811
:104AD000FEF7A6F8079801F0CBFF039A069880210D
:104AE0000491FEF79DF8079801F0C2FF0499059A1A
:104AF0000698FEF795F8079801F0BAFF08B080BD58
:104B000080B58CB040F21C60C2F20000019046F209
:104B10000041C4F200010160032141600021816075
:104B2000C1604FF4002202614FF4401242610176ED
:104B3000012242768276C27601774177FDF78AF8C4
:104B400018B1FFE7FCF78AFBFFE701210A910E206D
:104B50000B900020079009900891069044F22000E5
:104B6000029044F24000049044F2600003904FF43D
:104B70008140059040F21C60C2F2000002A9FCF7DF
:104B800091FC18B1FFE7FCF769FBFFE701210A91EF
:104B90000E200B900791002009900890069102903A
:104BA00004900390059040F21C60C2F2000002A93C
:104BB000FCF778FC18B1FFE7FCF750FBFFE740F289
:104BC0001C60C2F20000FDF789FA18B1FFE7FCF79C
:104BD00045FBFFE740F21C60C2F200000221FCF737
:104BE0008BFB18B1FFE7FCF739FBFFE740F21C60D5
:104BF000C2F200001021FCF77FFB18B1FFE7FCF7C1
:104C00002DFBFFE70CB080BD80B58CB040F2446056
:104C1000C2F20000019046F60001C4F200010160FA
:104C20000321416000218160C1604FF400220261D4
:104C30004FF4401242610176012242768276C276BA
:104C400001774177FDF706F818B1FFE7FCF706FB9F
:104C5000FFE701210A910E200B9007900020099098
:104C60000891069044F22000029044F24000049023
:104C700044F2600003904FF48140059040F244609C
:104C8000C2F2000002A9FCF70DFC18B1FFE7FCF727
:104C9000E5FAFFE701210A910E200B900F20079003
:104CA00000200990089006910290049003900590CE
:104CB00040F24460C2F2000002A9FCF7F3FB18B115
:104CC000FFE7FCF7CBFAFFE740F24460C2F20000D6
:104CD000FDF704FA18B1FFE7FCF7C0FAFFE740F26E
:104CE0004460C2F200000221FCF706FB18B1FFE7A6
:104CF000FCF7B4FAFFE740F24460C2F20000102172
:104D0000FCF7FAFA18B1FFE7FCF7A8FAFFE70CB0D6
:104D100080BD000080B588B0FFE70020079043F613
:104D20003000C4F20200016841F4800101600068B3
:104D300000F4800007900798FFE7FFE70020069047
:104D400043F63000C4F20200016841F40011016032
:104D5000006800F4001006900698FFE7102000900D
:104D60000521039100220492FEF746F80098FEF711
:104D700039F80399049A11200190FEF73DF8019843
:104D8000FEF730F80399049A3A200290FEF734F8BF
:104D90000298FEF727F80399049A46200590FEF73B
:104DA0002BF80598FEF71EF808B080BD80B582B0DC
:104DB00044F65520C0F6000049F61C32C0F6000249
:104DC0000021019101F0BCFE019940F2DC22C2F207
:104DD0000002106040F24D50C0F6000049F6CC22AF
:104DE000C0F6000201F0ACFE019940F27C02C2F272
:104DF0000002106040F6A950C0F6000049F6F0220B
:104E0000C0F6000201F09CFE40F2D021C2F2000187
:104E1000086002B080BD000080B58CB000200B900F
:104E20000A90099008900790FFE70020069043F64B
:104E30003000C4F20200016841F0800101600068A6
:104E400000F0800006900698FFE7FFE7002005903D
:104E500043F63000C4F20200016841F00101016034
:104E6000006800F0010005900598FFE7FFE70020CB
:104E7000049043F63000C4F20200016841F00201E0
:104E80000160006800F0020004900498FFE7002031
:104E9000C4F2020003904FF4F871019100220292D3
:104EA000FDF7BEFE019A029903980792012208922B
:104EB000022209920A9107A9FDF7D6FC0CB080BD29
:104EC00080B588B000210191079106910591049168
:104ED0000391029140F64400C2F200004FF080427C
:104EE000026053224260816040F2E732C260016199
:104EF0008161FEF797FD18B1FFE7FCF7AFF9FFE717
:104F00004FF48050049040F64400C2F2000004A91F
:104F1000FEF79EFE18B1FFE7FCF7A0F9FFE70020BF
:104F20000290039040F64400C2F2000002A9FEF78E
:104F3000E7FC18B1FFE7FCF791F9FFE740F6440002
:104F4000C2F20000FEF708FE18B1FFE7FCF786F991
:104F5000FFE708B080BD000080B588B00021019156
:104F600007910691059104910391029140F68C00FE
:104F7000C2F2000040F20042C4F20002026053227A
:104F80004260816040F2E732C26001618161FEF7F8
:104F900049FD18B1FFE7FCF761F9FFE74FF48050D6
:104FA000049040F68C00C2F2000004A9FEF750FE07
:104FB00018B1FFE7FCF752F9FFE7002002900390D9
:104FC00040F68C00C2F2000002A9FEF799FC18B16D
:104FD000FFE7FCF743F9FFE740F68C00C2F2000060
:104FE000FEF7BAFD18B1FFE7FCF738F9FFE708B0A4
:104FF00080BD000080B582B040F6D400C2F200004F
:10500000019041F20001C4F2010101604FF4E1316D
:10501000416000218160C16001610C2242618161B7
:10502000C161FFF7E9FA18B1FFE7FCF717F9FFE7ED
:1050300002B080BD80B582B040F61C10C2F2000004
:10504000019044F20041C4F2000101604FF4E131EB
:10505000416000218160C16001610C224261816177
:10506000C161FFF7C9FA18B1FFE7FCF7F7F8FFE7EE
:1050700002B080BDFFE7FEE781B08DED000A9DED37
:10508000000A9FED031A20EE010A01B0704700BF2D
:105090000000B443FFE7FEE788B007900691059251
:1050A000079800F0070004900498C0F10700052855
:1050B00003D3FFE70420019004E00498C0F1070047
:1050C0000190FFE70198039004980430062803D864
:1050D000FFE70020009003E0049803380090FFE70A
:1050E0000098029006980399012202FA01F1013911
:1050F0000840029B984005999A40013A11400843A4
:1051000008B0704700000000000000000000000030
:10511000EFF30980BFF36F8F154B1A681EF0100F65
:1051200008BF20ED108A20E9F04F10602DE909003A
:105130004FF0500080F31188BFF34F8FBFF36F8F94
:1051400003F0D4F94FF0000080F31188BDE80900A6
:1051500019680868B0E8F04F1EF0100F08BFB0ECF7
:10516000108A80F30988BFF36F8F704700BF00BFBC
:10517000580A0020000000000000000000000000AD
:10518000074B19680868B0E8F04F80F30988BFF34F
:105190006F8F4FF0000080F31188704700BF00BF91
:1051A000580A002080B56FF00400002101F0E0FBF8
:1051B00080BD000040F21C60C2F200007047000099
:1051C00080B54EF21000CEF20000006803F06AFFD6
:1051D000012803D0FFE703F099FAFFE780BD000044
:1051E00080B594B008A83021FBF719F9002007908A
:1051F0000690059004900390FFE70020029043F68C
:105200004000C4F20200016841F080510160006872
:1052100000F0805002900298FFE7FFE70020019025
:1052200047F20000C4F20000016841F480410160CF
:10523000006800F4804001900198FFE70120089089
:105240004FF48030099002200E904FF480010F91AE
:10525000192110914FF4A87111911290042013900C
:1052600008A8FDF7E5FF18B1FFE7FBF7F7FFFFE739
:105270000F20039002200490002005904FF4A050CE
:1052800006904FF48050079003A80521FDF7D6FD46
:1052900018B1FFE7FBF7E2FFFFE714B080BD0000A5
:1052A0004EF68851CEF20001086840F470000860A4
:1052B0007047000080B540F2FC70C2F20000FEF7BB
:1052C0008DFD80BD80B540F64400C2F20000FEF7BF
:1052D00085FD80BD80B540F68C00C2F20000FEF76F
:1052E0007DFD80BD83B0029001910298006800901E
:1052F00002980021C4F20101884225D0FFE70298FC
:10530000B0F1804F20D0FFE7029840F20041C4F294
:105310000001884218D0FFE7029840F60001C4F26D
:105320000001884210D0FFE7029840F60041C4F225
:105330000001884208D0FFE7029840F20041C4F221
:10534000010188420AD1FFE7009820F07000009028
:1053500001984168009808430090FFE702980021F7
:10536000C4F20101884255D0FFE70298B0F1804FA6
:1053700050D0FFE7029840F20041C4F20001884299
:1053800048D0FFE7029840F60001C4F200018842CD
:1053900040D0FFE7029840F60041C4F20001884285
:1053A00038D0FFE7029840F20041C4F20101884280
:1053B00030D0FFE7029844F20001C4F201018842B4
:1053C00028D0FFE7029844F20041C4F2010188426C
:1053D00020D0FFE7029844F60001C4F201018842A0
:1053E00018D0FFE7029841F60001C4F2000188429C
:1053F00010D0FFE7029841F60041C4F20001884254
:1054000008D0FFE7029842F20001C4F2000188428E
:105410000AD1FFE7009820F4407000900198C1681D
:10542000009808430090FFE7009820F08000019961
:10543000496908430090019880680299C862019800
:1054400000680299886202980021C4F20101884232
:1054500008D0FFE7029840F20041C4F201018842FF
:1054600005D1FFE70198006902990863FFE70299F7
:10547000086840F004000860029901204861009823
:105480000299086003B0704785B0049003910292BE
:105490000193049880680090009820F47F40009069
:1054A00003980299019A41EA0221014300980843B6
:1054B000009000980499886005B0704783B002900E
:1054C0000191029880680090009820F07000009090
:1054D00001980099084340F0070000900098029955
:1054E000886003B07047000080B582B001900198D9
:1054F0000068B0F1804F1CD1FFE70120009000F060
:105500004DFC009800F04AFC40F22041C2F200013C
:10551000087801300870C0B2052809DBFFE740F2C7
:105520002041C2F200010020087000F0CBFCFFE730
:10553000FFE70198006840F20041C4F20001884290
:1055400001D1FFE7FFE702B080BD000085B0049005
:10555000039102920498006A00900499086A20F06E
:1055600001000862049880690190019820F0F00021
:1055700001900299019840EA01100190009820F0F2
:105580000A0000900399009808430090019804993C
:10559000886100980499086205B0704785B004904E
:1055A000039102920498006A00900499086A20F01E
:1055B00010000862049880690190019820F47040FE
:1055C00001900299019840EA01300190009820F082
:1055D000A00000900399009840EA01100090019803
:1055E0000499886100980499086205B0704700002A
:1055F00080B582B001900198806B009000990020E6
:10560000C8850098FEF7A6FD02B080BD80B584B0C5
:105610000390002002900398806B0190019800682D
:105620004069C0B2C0090290019890F84100212859
:105630000AD1FFE7029838B1FFE701990020C8843A
:10564000019800F013F9FFE7019800684069C0F382
:1056500080100290019890F8420022280AD1FFE7BA
:10566000029838B1FFE701990020C885019800F041
:105670009FF8FFE70199486C40F0100048640198DA
:10568000FEF768FD04B080BD80B586B00590059832
:10569000806B0490059800680068C00500285AD403
:1056A000FFE704990020C885FFE7FFE7049800683A
:1056B00050E8030F20F480700390FFE703990498EB
:1056C000026842E803100028F0D1FFE7FFE7FFE798
:1056D000FFE70498006850E8050F20F001000290F1
:1056E000FFE702990498026842E805100028F0D10B
:1056F000FFE7FFE7FFE7FFE70498006850E8050FC2
:1057000020F040000190FFE701990498026842E808
:1057100005100028F0D1FFE7FFE70499202081F869
:1057200042000498006B012814D1FFE7FFE7FFE770
:105730000498006850E8030F20F010000090FFE785
:1057400000990498026842E803100028F0D1FFE7AE
:10575000FFE7FFE7FFE70499002048630498006B28
:10576000012805D1FFE70498818DFEF7C1FC03E015
:105770000498FFF731F9FFE706B080BD80B582B02D
:1057800001900198806B0090009901204863009877
:10579000006B012806D1FFE70098818D4908FEF7CC
:1057A000A7FC03E00098FFF74BF9FFE702B080BDCC
:1057B00084B00390FFE7FFE70398006850E8030F09
:1057C00020F490700290FFE702990398026842E883
:1057D00003100028F0D1FFE7FFE7FFE7FFE703989A
:1057E000006850E8050F20F001000190FFE70199E3
:1057F0000398026842E805100028F0D1FFE7FFE7B0
:105800000398006B012814D1FFE7FFE7FFE7039837
:10581000006850E8030F20F010000090FFE70099A7
:105820000398026842E803100028F0D1FFE7FFE781
:10583000FFE70399202081F84200039900200863C4
:1058400004B0704780B582B0019001980168C868C3
:1058500020F04000C8600199202081F841000198A3
:10586000FFF7F2F8002002B080BD000082B0019086
:10587000FFE7FFE70198006850E8030F20F0C00041
:105880000090FFE700990198026842E803100028A1
:10589000F0D1FFE7FFE70199202081F8410002B035
:1058A0007047000080B586B00490002003900290FD
:1058B000049890F84200222840F0A080FFE7049866
:1058C0008068B0F5805F13D1FFE70498006978B96C
:1058D000FFE70498806A02900498006840686FF3BC
:1058E0005F20029908800499886A0230886223E068
:1058F0000498806A039004988068B0F5805F08D0AF
:10590000FFE70498806850B9FFE70498006930B950
:10591000FFE70498006840680399087007E004985E
:105920000068406800F07F0003990870FFE7049961
:10593000886A01308862FFE70499C88D0138C885FC
:105940000004002856D1FFE704980168C86820F0D9
:105950002000C86004980168C86820F48070C8609E
:1059600004980168486920F00100486104992020EA
:1059700081F842000499002048630498006B0128D4
:1059800030D1FFE7049900200863FFE7FFE70498A0
:10599000006850E8030F20F010000190FFE7019924
:1059A0000498026842E803100028F0D1FFE7FFE7FF
:1059B000049800680068C00600280ED5FFE7FFE7DE
:1059C0000020009004980068006800900498006827
:1059D000406800900098FFE7FFE70498818DFEF78C
:1059E00087FB03E00498FEF7F7FFFFE700208DF840
:1059F000170007E000208DF8170003E002208DF863
:105A00001700FFE79DF8170006B080BD80B586B08F
:105A1000059005980068006920F44050059A1168C7
:105A2000D26810430861059988680B694A69C96999
:105A3000184310430843049005980068C06849F271
:105A40000C6188430499084305990968C860059862
:105A50000068406920F44070059A1168926910430B
:105A600048610598006841F20001C4F201018842D2
:105A700009D0FFE70598006841F20041C4F2010136
:105A8000884204D1FFE7FDF74DFB039003E0FDF7EB
:105A900037FB0390FFE70598C069B0F5004F29D1A7
:105AA000FFE703981921A0FB0101059A13680293EF
:105AB00053685A00DB0FFAF7EDFB0299864648F26D
:105AC0001F53C5F2EB13AEFB0320420910014FF048
:105AD000640C02FB1CEC322202EBCC02A2FB033270
